{
  "contractName": "DBNFT",
  "abi": [
    {
      "inputs": [
        {
          "internalType": "string",
          "name": "_name",
          "type": "string"
        },
        {
          "internalType": "string",
          "name": "_symbol",
          "type": "string"
        }
      ],
      "stateMutability": "nonpayable",
      "type": "constructor"
    },
    {
      "anonymous": false,
      "inputs": [
        {
          "indexed": true,
          "internalType": "address",
          "name": "owner",
          "type": "address"
        },
        {
          "indexed": true,
          "internalType": "address",
          "name": "approved",
          "type": "address"
        },
        {
          "indexed": true,
          "internalType": "uint256",
          "name": "tokenId",
          "type": "uint256"
        }
      ],
      "name": "Approval",
      "type": "event"
    },
    {
      "anonymous": false,
      "inputs": [
        {
          "indexed": true,
          "internalType": "address",
          "name": "owner",
          "type": "address"
        },
        {
          "indexed": true,
          "internalType": "address",
          "name": "operator",
          "type": "address"
        },
        {
          "indexed": false,
          "internalType": "bool",
          "name": "approved",
          "type": "bool"
        }
      ],
      "name": "ApprovalForAll",
      "type": "event"
    },
    {
      "anonymous": false,
      "inputs": [
        {
          "indexed": true,
          "internalType": "address",
          "name": "from",
          "type": "address"
        },
        {
          "indexed": true,
          "internalType": "address",
          "name": "to",
          "type": "address"
        },
        {
          "indexed": true,
          "internalType": "uint256",
          "name": "tokenId",
          "type": "uint256"
        }
      ],
      "name": "Transfer",
      "type": "event"
    },
    {
      "inputs": [],
      "name": "NFTForLoanCount",
      "outputs": [
        {
          "internalType": "uint256",
          "name": "",
          "type": "uint256"
        }
      ],
      "stateMutability": "view",
      "type": "function"
    },
    {
      "inputs": [],
      "name": "NFTForSaleCount",
      "outputs": [
        {
          "internalType": "uint256",
          "name": "",
          "type": "uint256"
        }
      ],
      "stateMutability": "view",
      "type": "function"
    },
    {
      "inputs": [
        {
          "internalType": "address",
          "name": "to",
          "type": "address"
        },
        {
          "internalType": "uint256",
          "name": "tokenId",
          "type": "uint256"
        }
      ],
      "name": "approve",
      "outputs": [],
      "stateMutability": "nonpayable",
      "type": "function"
    },
    {
      "inputs": [
        {
          "internalType": "address",
          "name": "owner",
          "type": "address"
        }
      ],
      "name": "balanceOf",
      "outputs": [
        {
          "internalType": "uint256",
          "name": "",
          "type": "uint256"
        }
      ],
      "stateMutability": "view",
      "type": "function"
    },
    {
      "inputs": [],
      "name": "baseURI",
      "outputs": [
        {
          "internalType": "string",
          "name": "",
          "type": "string"
        }
      ],
      "stateMutability": "view",
      "type": "function"
    },
    {
      "inputs": [
        {
          "internalType": "uint256",
          "name": "tokenId",
          "type": "uint256"
        }
      ],
      "name": "getApproved",
      "outputs": [
        {
          "internalType": "address",
          "name": "",
          "type": "address"
        }
      ],
      "stateMutability": "view",
      "type": "function"
    },
    {
      "inputs": [
        {
          "internalType": "uint256",
          "name": "",
          "type": "uint256"
        }
      ],
      "name": "getNFTInfobyID",
      "outputs": [
        {
          "internalType": "uint256",
          "name": "id",
          "type": "uint256"
        },
        {
          "internalType": "uint256",
          "name": "value",
          "type": "uint256"
        },
        {
          "internalType": "string",
          "name": "description",
          "type": "string"
        },
        {
          "internalType": "enum DBNFT.LoanStatus",
          "name": "loanStatus",
          "type": "uint8"
        },
        {
          "internalType": "enum DBNFT.SaleStatus",
          "name": "saleStatus",
          "type": "uint8"
        },
        {
          "internalType": "address payable",
          "name": "owner",
          "type": "address"
        },
        {
          "internalType": "address",
          "name": "borrower",
          "type": "address"
        },
        {
          "internalType": "uint256",
          "name": "onLoanFrom",
          "type": "uint256"
        },
        {
          "internalType": "uint256",
          "name": "loanPeriod",
          "type": "uint256"
        }
      ],
      "stateMutability": "view",
      "type": "function"
    },
    {
      "inputs": [
        {
          "internalType": "address",
          "name": "owner",
          "type": "address"
        },
        {
          "internalType": "address",
          "name": "operator",
          "type": "address"
        }
      ],
      "name": "isApprovedForAll",
      "outputs": [
        {
          "internalType": "bool",
          "name": "",
          "type": "bool"
        }
      ],
      "stateMutability": "view",
      "type": "function"
    },
    {
      "inputs": [],
      "name": "name",
      "outputs": [
        {
          "internalType": "string",
          "name": "",
          "type": "string"
        }
      ],
      "stateMutability": "view",
      "type": "function"
    },
    {
      "inputs": [
        {
          "internalType": "uint256",
          "name": "tokenId",
          "type": "uint256"
        }
      ],
      "name": "ownerOf",
      "outputs": [
        {
          "internalType": "address",
          "name": "",
          "type": "address"
        }
      ],
      "stateMutability": "view",
      "type": "function"
    },
    {
      "inputs": [
        {
          "internalType": "address",
          "name": "from",
          "type": "address"
        },
        {
          "internalType": "address",
          "name": "to",
          "type": "address"
        },
        {
          "internalType": "uint256",
          "name": "tokenId",
          "type": "uint256"
        }
      ],
      "name": "safeTransferFrom",
      "outputs": [],
      "stateMutability": "nonpayable",
      "type": "function"
    },
    {
      "inputs": [
        {
          "internalType": "address",
          "name": "from",
          "type": "address"
        },
        {
          "internalType": "address",
          "name": "to",
          "type": "address"
        },
        {
          "internalType": "uint256",
          "name": "tokenId",
          "type": "uint256"
        },
        {
          "internalType": "bytes",
          "name": "_data",
          "type": "bytes"
        }
      ],
      "name": "safeTransferFrom",
      "outputs": [],
      "stateMutability": "nonpayable",
      "type": "function"
    },
    {
      "inputs": [
        {
          "internalType": "address",
          "name": "operator",
          "type": "address"
        },
        {
          "internalType": "bool",
          "name": "approved",
          "type": "bool"
        }
      ],
      "name": "setApprovalForAll",
      "outputs": [],
      "stateMutability": "nonpayable",
      "type": "function"
    },
    {
      "inputs": [
        {
          "internalType": "bytes4",
          "name": "interfaceId",
          "type": "bytes4"
        }
      ],
      "name": "supportsInterface",
      "outputs": [
        {
          "internalType": "bool",
          "name": "",
          "type": "bool"
        }
      ],
      "stateMutability": "view",
      "type": "function"
    },
    {
      "inputs": [],
      "name": "symbol",
      "outputs": [
        {
          "internalType": "string",
          "name": "",
          "type": "string"
        }
      ],
      "stateMutability": "view",
      "type": "function"
    },
    {
      "inputs": [
        {
          "internalType": "uint256",
          "name": "index",
          "type": "uint256"
        }
      ],
      "name": "tokenByIndex",
      "outputs": [
        {
          "internalType": "uint256",
          "name": "",
          "type": "uint256"
        }
      ],
      "stateMutability": "view",
      "type": "function"
    },
    {
      "inputs": [
        {
          "internalType": "address",
          "name": "owner",
          "type": "address"
        },
        {
          "internalType": "uint256",
          "name": "index",
          "type": "uint256"
        }
      ],
      "name": "tokenOfOwnerByIndex",
      "outputs": [
        {
          "internalType": "uint256",
          "name": "",
          "type": "uint256"
        }
      ],
      "stateMutability": "view",
      "type": "function"
    },
    {
      "inputs": [
        {
          "internalType": "uint256",
          "name": "tokenId",
          "type": "uint256"
        }
      ],
      "name": "tokenURI",
      "outputs": [
        {
          "internalType": "string",
          "name": "",
          "type": "string"
        }
      ],
      "stateMutability": "view",
      "type": "function"
    },
    {
      "inputs": [],
      "name": "totalSupply",
      "outputs": [
        {
          "internalType": "uint256",
          "name": "",
          "type": "uint256"
        }
      ],
      "stateMutability": "view",
      "type": "function"
    },
    {
      "inputs": [
        {
          "internalType": "address",
          "name": "from",
          "type": "address"
        },
        {
          "internalType": "address",
          "name": "to",
          "type": "address"
        },
        {
          "internalType": "uint256",
          "name": "tokenId",
          "type": "uint256"
        }
      ],
      "name": "transferFrom",
      "outputs": [],
      "stateMutability": "nonpayable",
      "type": "function"
    },
    {
      "inputs": [
        {
          "internalType": "uint256",
          "name": "_value",
          "type": "uint256"
        },
        {
          "internalType": "string",
          "name": "_description",
          "type": "string"
        },
        {
          "internalType": "address payable",
          "name": "_owner",
          "type": "address"
        }
      ],
      "name": "mintNFT",
      "outputs": [],
      "stateMutability": "nonpayable",
      "type": "function"
    },
    {
      "inputs": [
        {
          "internalType": "uint256",
          "name": "_tokenId",
          "type": "uint256"
        }
      ],
      "name": "listNFTForLoan",
      "outputs": [],
      "stateMutability": "nonpayable",
      "type": "function"
    },
    {
      "inputs": [
        {
          "internalType": "uint256",
          "name": "_tokenId",
          "type": "uint256"
        },
        {
          "internalType": "uint256",
          "name": "_value",
          "type": "uint256"
        }
      ],
      "name": "listNFTForSale",
      "outputs": [],
      "stateMutability": "nonpayable",
      "type": "function"
    },
    {
      "inputs": [
        {
          "internalType": "uint256",
          "name": "_tokenId",
          "type": "uint256"
        },
        {
          "internalType": "uint256",
          "name": "_periodInSeconds",
          "type": "uint256"
        }
      ],
      "name": "calcLoan",
      "outputs": [
        {
          "internalType": "uint256",
          "name": "",
          "type": "uint256"
        }
      ],
      "stateMutability": "nonpayable",
      "type": "function"
    },
    {
      "inputs": [
        {
          "internalType": "uint256",
          "name": "_tokenId",
          "type": "uint256"
        },
        {
          "internalType": "uint256",
          "name": "_periodInSeconds",
          "type": "uint256"
        }
      ],
      "name": "borrowNFT",
      "outputs": [],
      "stateMutability": "payable",
      "type": "function"
    },
    {
      "inputs": [
        {
          "internalType": "uint256",
          "name": "_tokenId",
          "type": "uint256"
        },
        {
          "internalType": "address payable",
          "name": "_newOwner",
          "type": "address"
        }
      ],
      "name": "buyNFT",
      "outputs": [],
      "stateMutability": "payable",
      "type": "function"
    },
    {
      "inputs": [
        {
          "internalType": "uint256",
          "name": "_tokenId",
          "type": "uint256"
        },
        {
          "internalType": "address payable",
          "name": "_receiveAddress",
          "type": "address"
        }
      ],
      "name": "liquidateNFT",
      "outputs": [],
      "stateMutability": "nonpayable",
      "type": "function"
    },
    {
      "inputs": [
        {
          "internalType": "uint256",
          "name": "_tokenId",
          "type": "uint256"
        },
        {
          "internalType": "address payable",
          "name": "_receiveAddress",
          "type": "address"
        }
      ],
      "name": "returnNFT",
      "outputs": [],
      "stateMutability": "payable",
      "type": "function"
    }
  ],
  "bytecode": "0x60806040523480156200001157600080fd5b50604051620060de380380620060de833981810160405281019062000037919062000197565b818181600690805190602001906200005192919062000075565b5080600790805190602001906200006a92919062000075565b50505050506200033b565b8280546200008390620002a7565b90600052602060002090601f016020900481019282620000a75760008555620000f3565b82601f10620000c257805160ff1916838001178555620000f3565b82800160010185558215620000f3579182015b82811115620000f2578251825591602001919060010190620000d5565b5b50905062000102919062000106565b5090565b5b808211156200012157600081600090555060010162000107565b5090565b60006200013c62000136846200023e565b6200020a565b9050828152602081018484840111156200015557600080fd5b6200016284828562000271565b509392505050565b600082601f8301126200017c57600080fd5b81516200018e84826020860162000125565b91505092915050565b60008060408385031215620001ab57600080fd5b600083015167ffffffffffffffff811115620001c657600080fd5b620001d4858286016200016a565b925050602083015167ffffffffffffffff811115620001f257600080fd5b62000200858286016200016a565b9150509250929050565b6000604051905081810181811067ffffffffffffffff821117156200023457620002336200030c565b5b8060405250919050565b600067ffffffffffffffff8211156200025c576200025b6200030c565b5b601f19601f8301169050602081019050919050565b60005b838110156200029157808201518184015260208101905062000274565b83811115620002a1576000848401525b50505050565b60006002820490506001821680620002c057607f821691505b60208210811415620002d757620002d6620002dd565b5b50919050565b7f4e487b7100000000000000000000000000000000000000000000000000000000600052602260045260246000fd5b7f4e487b7100000000000000000000000000000000000000000000000000000000600052604160045260246000fd5b615d93806200034b6000396000f3fe6080604052600436106101b75760003560e01c80636352211e116100ec578063a22cb4651161008a578063b88d4fde11610064578063b88d4fde1461062e578063c87b56dd14610657578063d8db47a714610694578063e985e9c5146106b0576101b7565b8063a22cb465146105b3578063b2733b39146105dc578063b83f908c14610605576101b7565b806370a08231116100c657806370a08231146104e55780637a886cc0146105225780637c04660c1461055f57806395d89b4114610588576101b7565b80636352211e1461045457806365d98cd6146104915780636c0360eb146104ba576101b7565b80632f745c59116101595780634489e32a116101335780634489e32a1461038b5780634c35ad93146103b65780634f6ccce7146103d257806362aa21021461040f576101b7565b80632f745c59146103095780632fd3db341461034657806342842e0e14610362576101b7565b8063095ea7b311610195578063095ea7b3146102615780630a1379a11461028a57806318160ddd146102b557806323b872dd146102e0576101b7565b806301ffc9a7146101bc57806306fdde03146101f9578063081812fc14610224575b600080fd5b3480156101c857600080fd5b506101e360048036038101906101de919061458f565b6106ed565b6040516101f091906151e5565b60405180910390f35b34801561020557600080fd5b5061020e610757565b60405161021b9190615200565b60405180910390f35b34801561023057600080fd5b5061024b600480360381019061024691906145e1565b6107e9565b604051610258919061517e565b60405180910390f35b34801561026d57600080fd5b5061028860048036038101906102839190614553565b61086e565b005b34801561029657600080fd5b5061029f610986565b6040516102ac9190615562565b60405180910390f35b3480156102c157600080fd5b506102ca61098c565b6040516102d79190615562565b60405180910390f35b3480156102ec57600080fd5b506103076004803603810190610302919061444d565b61099d565b005b34801561031557600080fd5b50610330600480360381019061032b9190614553565b6109fd565b60405161033d9190615562565b60405180910390f35b610360600480360381019061035b919061460a565b610a57565b005b34801561036e57600080fd5b506103896004803603810190610384919061444d565b61111c565b005b34801561039757600080fd5b506103a061113c565b6040516103ad9190615562565b60405180910390f35b6103d060048036038101906103cb91906146ad565b611142565b005b3480156103de57600080fd5b506103f960048036038101906103f491906145e1565b6115cc565b6040516104069190615562565b60405180910390f35b34801561041b57600080fd5b50610436600480360381019061043191906145e1565b6115ef565b60405161044b9998979695949392919061557d565b60405180910390f35b34801561046057600080fd5b5061047b600480360381019061047691906145e1565b61172f565b604051610488919061517e565b60405180910390f35b34801561049d57600080fd5b506104b860048036038101906104b39190614646565b611766565b005b3480156104c657600080fd5b506104cf611a7e565b6040516104dc9190615200565b60405180910390f35b3480156104f157600080fd5b5061050c600480360381019061050791906143e8565b611b10565b6040516105199190615562565b60405180910390f35b34801561052e57600080fd5b50610549600480360381019061054491906146ad565b611bce565b6040516105569190615562565b60405180910390f35b34801561056b57600080fd5b50610586600480360381019061058191906145e1565b611c84565b005b34801561059457600080fd5b5061059d611dd2565b6040516105aa9190615200565b60405180910390f35b3480156105bf57600080fd5b506105da60048036038101906105d59190614517565b611e64565b005b3480156105e857600080fd5b5061060360048036038101906105fe91906146ad565b611fe5565b005b34801561061157600080fd5b5061062c6004803603810190610627919061460a565b6121ef565b005b34801561063a57600080fd5b506106556004803603810190610650919061449c565b6127c6565b005b34801561066357600080fd5b5061067e600480360381019061067991906145e1565b612828565b60405161068b9190615200565b60405180910390f35b6106ae60048036038101906106a9919061460a565b61299b565b005b3480156106bc57600080fd5b506106d760048036038101906106d29190614411565b613014565b6040516106e491906151e5565b60405180910390f35b60007f01ffc9a7000000000000000000000000000000000000000000000000000000007bffffffffffffffffffffffffffffffffffffffffffffffffffffffff1916827bffffffffffffffffffffffffffffffffffffffffffffffffffffffff1916149050919050565b60606006805461076690615ab2565b80601f016020809104026020016040519081016040528092919081815260200182805461079290615ab2565b80156107df5780601f106107b4576101008083540402835291602001916107df565b820191906000526020600020905b8154815290600101906020018083116107c257829003601f168201915b5050505050905090565b60006107f4826130a8565b610833576040517f08c379a000000000000000000000000000000000000000000000000000000000815260040161082a90615402565b60405180910390fd5b6004600083815260200190815260200160002060009054906101000a900473ffffffffffffffffffffffffffffffffffffffff169050919050565b60006108798261172f565b90508073ffffffffffffffffffffffffffffffffffffffff168373ffffffffffffffffffffffffffffffffffffffff1614156108ea576040517f08c379a00000000000000000000000000000000000000000000000000000000081526004016108e1906154a2565b60405180910390fd5b8073ffffffffffffffffffffffffffffffffffffffff166109096130c5565b73ffffffffffffffffffffffffffffffffffffffff1614806109385750610937816109326130c5565b613014565b5b610977576040517f08c379a000000000000000000000000000000000000000000000000000000000815260040161096e90615382565b60405180910390fd5b61098183836130cd565b505050565b600d5481565b60006109986001613186565b905090565b6109ae6109a86130c5565b8261319b565b6109ed576040517f08c379a00000000000000000000000000000000000000000000000000000000081526004016109e4906154e2565b60405180910390fd5b6109f8838383613279565b505050565b6000610a4f826000808673ffffffffffffffffffffffffffffffffffffffff1673ffffffffffffffffffffffffffffffffffffffff16815260200190815260200160002061348e90919063ffffffff16565b905092915050565b600073ffffffffffffffffffffffffffffffffffffffff163373ffffffffffffffffffffffffffffffffffffffff161415610a9157600080fd5b610a9a826130a8565b610ad9576040517f08c379a0000000000000000000000000000000000000000000000000000000008152600401610ad090615542565b60405180910390fd5b6000610ae4836134a8565b90506000600b8281548110610b22577f4e487b7100000000000000000000000000000000000000000000000000000000600052603260045260246000fd5b9060005260206000209060070201604051806101200160405290816000820154815260200160018201548152602001600282018054610b6090615ab2565b80601f0160208091040260200160405190810160405280929190818152602001828054610b8c90615ab2565b8015610bd95780601f10610bae57610100808354040283529160200191610bd9565b820191906000526020600020905b815481529060010190602001808311610bbc57829003601f168201915b505050505081526020016003820160009054906101000a900460ff166003811115610c2d577f4e487b7100000000000000000000000000000000000000000000000000000000600052602160045260246000fd5b6003811115610c65577f4e487b7100000000000000000000000000000000000000000000000000000000600052602160045260246000fd5b81526020016003820160019054906101000a900460ff166001811115610cb4577f4e487b7100000000000000000000000000000000000000000000000000000000600052602160045260246000fd5b6001811115610cec577f4e487b7100000000000000000000000000000000000000000000000000000000600052602160045260246000fd5b81526020016003820160029054906101000a900473ffffffffffffffffffffffffffffffffffffffff1673ffffffffffffffffffffffffffffffffffffffff1673ffffffffffffffffffffffffffffffffffffffff1681526020016004820160009054906101000a900473ffffffffffffffffffffffffffffffffffffffff1673ffffffffffffffffffffffffffffffffffffffff1673ffffffffffffffffffffffffffffffffffffffff16815260200160058201548152602001600682015481525050905060016003811115610dec577f4e487b7100000000000000000000000000000000000000000000000000000000600052602160045260246000fd5b81606001516003811115610e29577f4e487b7100000000000000000000000000000000000000000000000000000000600052602160045260246000fd5b14610e69576040517f08c379a0000000000000000000000000000000000000000000000000000000008152600401610e60906153c2565b60405180910390fd5b8061010001518160e0015142610e7f9190615942565b1115610ec0576040517f08c379a0000000000000000000000000000000000000000000000000000000008152600401610eb7906152c2565b60405180910390fd5b6002600b8381548110610efc577f4e487b7100000000000000000000000000000000000000000000000000000000600052603260045260246000fd5b906000526020600020906007020160030160006101000a81548160ff02191690836003811115610f55577f4e487b7100000000000000000000000000000000000000000000000000000000600052602160045260246000fd5b02179055506000600b8381548110610f96577f4e487b7100000000000000000000000000000000000000000000000000000000600052603260045260246000fd5b9060005260206000209060070201600501819055506000600b8381548110610fe7577f4e487b7100000000000000000000000000000000000000000000000000000000600052603260045260246000fd5b90600052602060002090600702016006018190555061107233600b848154811061103a577f4e487b7100000000000000000000000000000000000000000000000000000000600052603260045260246000fd5b906000526020600020906007020160030160029054906101000a900473ffffffffffffffffffffffffffffffffffffffff168661099d565b6000600b83815481106110ae577f4e487b7100000000000000000000000000000000000000000000000000000000600052603260045260246000fd5b90600052602060002090600702016001015460026110cc91906158e8565b90508373ffffffffffffffffffffffffffffffffffffffff166108fc829081150290604051600060405180830381858888f19350505050158015611114573d6000803e3d6000fd5b505050505050565b611137838383604051806020016040528060008152506127c6565b505050565b600c5481565b600073ffffffffffffffffffffffffffffffffffffffff163373ffffffffffffffffffffffffffffffffffffffff16141561117c57600080fd5b611185826130a8565b6111c4576040517f08c379a00000000000000000000000000000000000000000000000000000000081526004016111bb90615542565b60405180910390fd5b60006111cf836134a8565b90506000600381111561120b577f4e487b7100000000000000000000000000000000000000000000000000000000600052602160045260246000fd5b600b8281548110611245577f4e487b7100000000000000000000000000000000000000000000000000000000600052603260045260246000fd5b906000526020600020906007020160030160009054906101000a900460ff16600381111561129c577f4e487b7100000000000000000000000000000000000000000000000000000000600052602160045260246000fd5b146112dc576040517f08c379a00000000000000000000000000000000000000000000000000000000081526004016112d390615322565b60405180910390fd5b60006112e88484611bce565b90508034101561132d576040517f08c379a000000000000000000000000000000000000000000000000000000000815260040161132490615242565b60405180910390fd5b600b8281548110611367577f4e487b7100000000000000000000000000000000000000000000000000000000600052603260045260246000fd5b906000526020600020906007020160030160029054906101000a900473ffffffffffffffffffffffffffffffffffffffff1673ffffffffffffffffffffffffffffffffffffffff166108fc349081150290604051600060405180830381858888f193505050501580156113de573d6000803e3d6000fd5b5033600b838154811061141a577f4e487b7100000000000000000000000000000000000000000000000000000000600052603260045260246000fd5b906000526020600020906007020160040160006101000a81548173ffffffffffffffffffffffffffffffffffffffff021916908373ffffffffffffffffffffffffffffffffffffffff1602179055506001600b83815481106114a5577f4e487b7100000000000000000000000000000000000000000000000000000000600052603260045260246000fd5b906000526020600020906007020160030160006101000a81548160ff021916908360038111156114fe577f4e487b7100000000000000000000000000000000000000000000000000000000600052602160045260246000fd5b021790555042600b838154811061153e577f4e487b7100000000000000000000000000000000000000000000000000000000600052603260045260246000fd5b90600052602060002090600702016005018190555082600b838154811061158e577f4e487b7100000000000000000000000000000000000000000000000000000000600052603260045260246000fd5b906000526020600020906007020160060181905550600c60008154809291906115b690615a88565b91905055506115c6303386613279565b50505050565b6000806115e38360016134c590919063ffffffff16565b50905080915050919050565b600b81815481106115ff57600080fd5b906000526020600020906007020160009150905080600001549080600101549080600201805461162e90615ab2565b80601f016020809104026020016040519081016040528092919081815260200182805461165a90615ab2565b80156116a75780601f1061167c576101008083540402835291602001916116a7565b820191906000526020600020905b81548152906001019060200180831161168a57829003601f168201915b5050505050908060030160009054906101000a900460ff16908060030160019054906101000a900460ff16908060030160029054906101000a900473ffffffffffffffffffffffffffffffffffffffff16908060040160009054906101000a900473ffffffffffffffffffffffffffffffffffffffff16908060050154908060060154905089565b600061175f82604051806060016040528060298152602001615d356029913960016134f19092919063ffffffff16565b9050919050565b600060405180610120016040528060008152602001858152602001848152602001600260038111156117c1577f4e487b7100000000000000000000000000000000000000000000000000000000600052602160045260246000fd5b81526020016001808111156117ff577f4e487b7100000000000000000000000000000000000000000000000000000000600052602160045260246000fd5b81526020018373ffffffffffffffffffffffffffffffffffffffff168152602001600073ffffffffffffffffffffffffffffffffffffffff1681526020016000815260200160008152509050600b819080600181540180825580915050600190039060005260206000209060070201600090919091909150600082015181600001556020820151816001015560408201518160020190805190602001906118a79291906141f7565b5060608201518160030160006101000a81548160ff021916908360038111156118f9577f4e487b7100000000000000000000000000000000000000000000000000000000600052602160045260246000fd5b021790555060808201518160030160016101000a81548160ff0219169083600181111561194f577f4e487b7100000000000000000000000000000000000000000000000000000000600052602160045260246000fd5b021790555060a08201518160030160026101000a81548173ffffffffffffffffffffffffffffffffffffffff021916908373ffffffffffffffffffffffffffffffffffffffff16021790555060c08201518160040160006101000a81548173ffffffffffffffffffffffffffffffffffffffff021916908373ffffffffffffffffffffffffffffffffffffffff16021790555060e082015181600501556101008201518160060155505060006001600b80549050611a0d9190615942565b9050611a193382613510565b6000611a24826134a8565b905080600b8281548110611a61577f4e487b7100000000000000000000000000000000000000000000000000000000600052603260045260246000fd5b906000526020600020906007020160000181905550505050505050565b606060098054611a8d90615ab2565b80601f0160208091040260200160405190810160405280929190818152602001828054611ab990615ab2565b8015611b065780601f10611adb57610100808354040283529160200191611b06565b820191906000526020600020905b815481529060010190602001808311611ae957829003601f168201915b5050505050905090565b60008073ffffffffffffffffffffffffffffffffffffffff168273ffffffffffffffffffffffffffffffffffffffff161415611b81576040517f08c379a0000000000000000000000000000000000000000000000000000000008152600401611b78906153a2565b60405180910390fd5b611bc76000808473ffffffffffffffffffffffffffffffffffffffff1673ffffffffffffffffffffffffffffffffffffffff16815260200190815260200160002061352e565b9050919050565b600080611bda846134a8565b90506000600b8281548110611c18577f4e487b7100000000000000000000000000000000000000000000000000000000600052603260045260246000fd5b906000526020600020906007020160010154905060006005856064611c3d91906158e8565b611c479190615746565b90506000611c588383886008613543565b90506000836002611c6991906158e8565b90508181611c7791906156f0565b9550505050505092915050565b600073ffffffffffffffffffffffffffffffffffffffff163373ffffffffffffffffffffffffffffffffffffffff161415611cbe57600080fd5b6000611cc98261172f565b90508073ffffffffffffffffffffffffffffffffffffffff163373ffffffffffffffffffffffffffffffffffffffff1614611d0357600080fd5b6000611d0e836134a8565b9050611d1b823085613279565b6000600b8281548110611d57577f4e487b7100000000000000000000000000000000000000000000000000000000600052603260045260246000fd5b906000526020600020906007020160030160006101000a81548160ff02191690836003811115611db0577f4e487b7100000000000000000000000000000000000000000000000000000000600052602160045260246000fd5b0217905550600c6000815480929190611dc890615ae4565b9190505550505050565b606060078054611de190615ab2565b80601f0160208091040260200160405190810160405280929190818152602001828054611e0d90615ab2565b8015611e5a5780601f10611e2f57610100808354040283529160200191611e5a565b820191906000526020600020905b815481529060010190602001808311611e3d57829003601f168201915b5050505050905090565b611e6c6130c5565b73ffffffffffffffffffffffffffffffffffffffff168273ffffffffffffffffffffffffffffffffffffffff161415611eda576040517f08c379a0000000000000000000000000000000000000000000000000000000008152600401611ed190615302565b60405180910390fd5b8060056000611ee76130c5565b73ffffffffffffffffffffffffffffffffffffffff1673ffffffffffffffffffffffffffffffffffffffff16815260200190815260200160002060008473ffffffffffffffffffffffffffffffffffffffff1673ffffffffffffffffffffffffffffffffffffffff16815260200190815260200160002060006101000a81548160ff0219169083151502179055508173ffffffffffffffffffffffffffffffffffffffff16611f946130c5565b73ffffffffffffffffffffffffffffffffffffffff167f17307eab39ab6107e8899845ad3d59bd9653f200f220920489ca2b5937696c3183604051611fd991906151e5565b60405180910390a35050565b600073ffffffffffffffffffffffffffffffffffffffff163373ffffffffffffffffffffffffffffffffffffffff16141561201f57600080fd5b600061202a836134a8565b9050600b8181548110612066577f4e487b7100000000000000000000000000000000000000000000000000000000600052603260045260246000fd5b906000526020600020906007020160030160029054906101000a900473ffffffffffffffffffffffffffffffffffffffff1673ffffffffffffffffffffffffffffffffffffffff163373ffffffffffffffffffffffffffffffffffffffff16146120cf57600080fd5b60006120da8461172f565b90506000600b8381548110612118577f4e487b7100000000000000000000000000000000000000000000000000000000600052603260045260246000fd5b906000526020600020906007020160030160016101000a81548160ff02191690836001811115612171577f4e487b7100000000000000000000000000000000000000000000000000000000600052602160045260246000fd5b021790555082600b83815481106121b1577f4e487b7100000000000000000000000000000000000000000000000000000000600052603260045260246000fd5b906000526020600020906007020160010181905550600d60008154809291906121d990615ae4565b91905055506121e9813086613279565b50505050565b600073ffffffffffffffffffffffffffffffffffffffff163373ffffffffffffffffffffffffffffffffffffffff16141561222957600080fd5b612232826130a8565b612271576040517f08c379a000000000000000000000000000000000000000000000000000000000815260040161226890615542565b60405180910390fd5b600061227c836134a8565b90506000600b82815481106122ba577f4e487b7100000000000000000000000000000000000000000000000000000000600052603260045260246000fd5b90600052602060002090600702016040518061012001604052908160008201548152602001600182015481526020016002820180546122f890615ab2565b80601f016020809104026020016040519081016040528092919081815260200182805461232490615ab2565b80156123715780601f1061234657610100808354040283529160200191612371565b820191906000526020600020905b81548152906001019060200180831161235457829003601f168201915b505050505081526020016003820160009054906101000a900460ff1660038111156123c5577f4e487b7100000000000000000000000000000000000000000000000000000000600052602160045260246000fd5b60038111156123fd577f4e487b7100000000000000000000000000000000000000000000000000000000600052602160045260246000fd5b81526020016003820160019054906101000a900460ff16600181111561244c577f4e487b7100000000000000000000000000000000000000000000000000000000600052602160045260246000fd5b6001811115612484577f4e487b7100000000000000000000000000000000000000000000000000000000600052602160045260246000fd5b81526020016003820160029054906101000a900473ffffffffffffffffffffffffffffffffffffffff1673ffffffffffffffffffffffffffffffffffffffff1673ffffffffffffffffffffffffffffffffffffffff1681526020016004820160009054906101000a900473ffffffffffffffffffffffffffffffffffffffff1673ffffffffffffffffffffffffffffffffffffffff1673ffffffffffffffffffffffffffffffffffffffff1681526020016005820154815260200160068201548152505090508060a0015173ffffffffffffffffffffffffffffffffffffffff163373ffffffffffffffffffffffffffffffffffffffff16146125bc576040517f08c379a00000000000000000000000000000000000000000000000000000000081526004016125b3906154c2565b60405180910390fd5b600160038111156125f6577f4e487b7100000000000000000000000000000000000000000000000000000000600052602160045260246000fd5b81606001516003811115612633577f4e487b7100000000000000000000000000000000000000000000000000000000600052602160045260246000fd5b14612673576040517f08c379a000000000000000000000000000000000000000000000000000000000815260040161266a90615502565b60405180910390fd5b8061010001518160e00151426126899190615942565b116126c9576040517f08c379a00000000000000000000000000000000000000000000000000000000081526004016126c090615482565b60405180910390fd5b6000816020015160026126dc91906158e8565b90508373ffffffffffffffffffffffffffffffffffffffff166108fc829081150290604051600060405180830381858888f19350505050158015612724573d6000803e3d6000fd5b506003600b8481548110612761577f4e487b7100000000000000000000000000000000000000000000000000000000600052603260045260246000fd5b906000526020600020906007020160030160006101000a81548160ff021916908360038111156127ba577f4e487b7100000000000000000000000000000000000000000000000000000000600052602160045260246000fd5b02179055505050505050565b6127d76127d16130c5565b8361319b565b612816576040517f08c379a000000000000000000000000000000000000000000000000000000000815260040161280d906154e2565b60405180910390fd5b612822848484846135ee565b50505050565b6060612833826130a8565b612872576040517f08c379a000000000000000000000000000000000000000000000000000000000815260040161286990615462565b60405180910390fd5b600060086000848152602001908152602001600020805461289290615ab2565b80601f01602080910402602001604051908101604052809291908181526020018280546128be90615ab2565b801561290b5780601f106128e05761010080835404028352916020019161290b565b820191906000526020600020905b8154815290600101906020018083116128ee57829003601f168201915b50505050509050600061291c611a7e565b9050600081511415612932578192505050612996565b60008251111561296757808260405160200161294f92919061515a565b60405160208183030381529060405292505050612996565b806129718561364a565b60405160200161298292919061515a565b604051602081830303815290604052925050505b919050565b600073ffffffffffffffffffffffffffffffffffffffff163373ffffffffffffffffffffffffffffffffffffffff1614156129d557600080fd5b6129de826130a8565b612a1d576040517f08c379a0000000000000000000000000000000000000000000000000000000008152600401612a1490615542565b60405180910390fd5b6000612a28836134a8565b90506000600b8281548110612a66577f4e487b7100000000000000000000000000000000000000000000000000000000600052603260045260246000fd5b9060005260206000209060070201604051806101200160405290816000820154815260200160018201548152602001600282018054612aa490615ab2565b80601f0160208091040260200160405190810160405280929190818152602001828054612ad090615ab2565b8015612b1d5780601f10612af257610100808354040283529160200191612b1d565b820191906000526020600020905b815481529060010190602001808311612b0057829003601f168201915b505050505081526020016003820160009054906101000a900460ff166003811115612b71577f4e487b7100000000000000000000000000000000000000000000000000000000600052602160045260246000fd5b6003811115612ba9577f4e487b7100000000000000000000000000000000000000000000000000000000600052602160045260246000fd5b81526020016003820160019054906101000a900460ff166001811115612bf8577f4e487b7100000000000000000000000000000000000000000000000000000000600052602160045260246000fd5b6001811115612c30577f4e487b7100000000000000000000000000000000000000000000000000000000600052602160045260246000fd5b81526020016003820160029054906101000a900473ffffffffffffffffffffffffffffffffffffffff1673ffffffffffffffffffffffffffffffffffffffff1673ffffffffffffffffffffffffffffffffffffffff1681526020016004820160009054906101000a900473ffffffffffffffffffffffffffffffffffffffff1673ffffffffffffffffffffffffffffffffffffffff1673ffffffffffffffffffffffffffffffffffffffff16815260200160058201548152602001600682015481525050905060006001811115612d30577f4e487b7100000000000000000000000000000000000000000000000000000000600052602160045260246000fd5b81608001516001811115612d6d577f4e487b7100000000000000000000000000000000000000000000000000000000600052602160045260246000fd5b14612dad576040517f08c379a0000000000000000000000000000000000000000000000000000000008152600401612da490615442565b60405180910390fd5b8060200151341015612df4576040517f08c379a0000000000000000000000000000000000000000000000000000000008152600401612deb90615262565b60405180910390fd5b600081602001516002612e0791906158e8565b34612e129190615942565b9050600b8381548110612e4e577f4e487b7100000000000000000000000000000000000000000000000000000000600052603260045260246000fd5b906000526020600020906007020160030160029054906101000a900473ffffffffffffffffffffffffffffffffffffffff1673ffffffffffffffffffffffffffffffffffffffff166108fc829081150290604051600060405180830381858888f19350505050158015612ec5573d6000803e3d6000fd5b5083600b8481548110612f01577f4e487b7100000000000000000000000000000000000000000000000000000000600052603260045260246000fd5b906000526020600020906007020160030160026101000a81548173ffffffffffffffffffffffffffffffffffffffff021916908373ffffffffffffffffffffffffffffffffffffffff1602179055506001600b8481548110612f8c577f4e487b7100000000000000000000000000000000000000000000000000000000600052603260045260246000fd5b906000526020600020906007020160030160016101000a81548160ff02191690836001811115612fe5577f4e487b7100000000000000000000000000000000000000000000000000000000600052602160045260246000fd5b0217905550600d6000815480929190612ffd90615a88565b919050555061300d303387613279565b5050505050565b6000600560008473ffffffffffffffffffffffffffffffffffffffff1673ffffffffffffffffffffffffffffffffffffffff16815260200190815260200160002060008373ffffffffffffffffffffffffffffffffffffffff1673ffffffffffffffffffffffffffffffffffffffff16815260200190815260200160002060009054906101000a900460ff16905092915050565b60006130be8260016137f790919063ffffffff16565b9050919050565b600033905090565b816004600083815260200190815260200160002060006101000a81548173ffffffffffffffffffffffffffffffffffffffff021916908373ffffffffffffffffffffffffffffffffffffffff160217905550808273ffffffffffffffffffffffffffffffffffffffff166131408361172f565b73ffffffffffffffffffffffffffffffffffffffff167f8c5be1e5ebec7d5bd14f71427d1e84f3dd0314c0f7b2291e5b200ac8c7c3b92560405160405180910390a45050565b600061319482600001613811565b9050919050565b60006131a6826130a8565b6131e5576040517f08c379a00000000000000000000000000000000000000000000000000000000081526004016131dc90615362565b60405180910390fd5b60006131f08361172f565b90508073ffffffffffffffffffffffffffffffffffffffff168473ffffffffffffffffffffffffffffffffffffffff16148061325f57508373ffffffffffffffffffffffffffffffffffffffff16613247846107e9565b73ffffffffffffffffffffffffffffffffffffffff16145b80613270575061326f8185613014565b5b91505092915050565b8273ffffffffffffffffffffffffffffffffffffffff166132998261172f565b73ffffffffffffffffffffffffffffffffffffffff16146132ef576040517f08c379a00000000000000000000000000000000000000000000000000000000081526004016132e690615422565b60405180910390fd5b600073ffffffffffffffffffffffffffffffffffffffff168273ffffffffffffffffffffffffffffffffffffffff16141561335f576040517f08c379a0000000000000000000000000000000000000000000000000000000008152600401613356906152e2565b60405180910390fd5b61336a838383613826565b6133756000826130cd565b6133c5816000808673ffffffffffffffffffffffffffffffffffffffff1673ffffffffffffffffffffffffffffffffffffffff16815260200190815260200160002061382b90919063ffffffff16565b50613416816000808573ffffffffffffffffffffffffffffffffffffffff1673ffffffffffffffffffffffffffffffffffffffff16815260200190815260200160002061384590919063ffffffff16565b5061342d8183600161385f9092919063ffffffff16565b50808273ffffffffffffffffffffffffffffffffffffffff168473ffffffffffffffffffffffffffffffffffffffff167fddf252ad1be2c89b69c2b068fc378daa952ba7f163c4a11628f55a4df523b3ef60405160405180910390a4505050565b600061349d8360000183613894565b60001c905092915050565b6000600a6000838152602001908152602001600020549050919050565b6000806000806134d8866000018661392e565b915091508160001c8160001c9350935050509250929050565b6000613504846000018460001b8461396e565b60001c90509392505050565b61352a8282604051806020016040528060008152506139ef565b5050565b600061353c82600001613a4a565b9050919050565b6000806000905060006001905060006001905060005b858110156135df57808861356d91906157ca565b82848b61357a91906158e8565b6135849190615746565b61358e9190615746565b8461359991906156f0565b935080876135a79190615942565b836135b291906158e8565b92506001816135c191906156f0565b826135cc91906158e8565b9150806135d890615ae4565b9050613559565b50829350505050949350505050565b6135f9848484613279565b61360584848484613a5b565b613644576040517f08c379a000000000000000000000000000000000000000000000000000000000815260040161363b90615282565b60405180910390fd5b50505050565b60606000821415613692576040518060400160405280600181526020017f300000000000000000000000000000000000000000000000000000000000000081525090506137f2565b600082905060005b600082146136c45780806136ad90615ae4565b915050600a826136bd9190615746565b915061369a565b60008167ffffffffffffffff811115613706577f4e487b7100000000000000000000000000000000000000000000000000000000600052604160045260246000fd5b6040519080825280601f01601f1916602001820160405280156137385781602001600182028036833780820191505090505b5090505b600085146137eb576001826137519190615942565b9150600a856137609190615b2d565b603061376c91906156f0565b60f81b8183815181106137a8577f4e487b7100000000000000000000000000000000000000000000000000000000600052603260045260246000fd5b60200101907effffffffffffffffffffffffffffffffffffffffffffffffffffffffffffff1916908160001a905350600a856137e49190615746565b945061373c565b8093505050505b919050565b6000613809836000018360001b613bbf565b905092915050565b600061381f82600001613bdf565b9050919050565b505050565b600061383d836000018360001b613bf4565b905092915050565b6000613857836000018360001b613d7e565b905092915050565b600061388b846000018460001b8473ffffffffffffffffffffffffffffffffffffffff1660001b613dee565b90509392505050565b6000818360000180549050116138df576040517f08c379a00000000000000000000000000000000000000000000000000000000081526004016138d690615222565b60405180910390fd5b82600001828154811061391b577f4e487b7100000000000000000000000000000000000000000000000000000000600052603260045260246000fd5b9060005260206000200154905092915050565b60008060006139498486600001613e2990919063ffffffff16565b9050808560020160008381526020019081526020016000205492509250509250929050565b6000808460020160008581526020019081526020016000205490506000801b811415806139a157506139a08585613bbf565b5b83906139e3576040517f08c379a00000000000000000000000000000000000000000000000000000000081526004016139da9190615200565b60405180910390fd5b50809150509392505050565b6139f98383613e40565b613a066000848484613a5b565b613a45576040517f08c379a0000000000000000000000000000000000000000000000000000000008152600401613a3c90615282565b60405180910390fd5b505050565b600081600001805490509050919050565b6000613a7c8473ffffffffffffffffffffffffffffffffffffffff16614000565b613a895760019050613bb7565b6000613b5063150b7a0260e01b613a9e6130c5565b888787604051602401613ab49493929190615199565b604051602081830303815290604052907bffffffffffffffffffffffffffffffffffffffffffffffffffffffff19166020820180517bffffffffffffffffffffffffffffffffffffffffffffffffffffffff8381831617835250505050604051806060016040528060328152602001615d03603291398773ffffffffffffffffffffffffffffffffffffffff166140139092919063ffffffff16565b9050600081806020019051810190613b6891906145b8565b905063150b7a0260e01b7bffffffffffffffffffffffffffffffffffffffffffffffffffffffff1916817bffffffffffffffffffffffffffffffffffffffffffffffffffffffff191614925050505b949350505050565b6000613bd7828460000161402b90919063ffffffff16565b905092915050565b6000613bed82600001613a4a565b9050919050565b60008083600101600084815260200190815260200160002054905060008114613d72576000600182613c269190615942565b9050600060018660000180549050613c3e9190615942565b90506000866000018281548110613c7e577f4e487b7100000000000000000000000000000000000000000000000000000000600052603260045260246000fd5b9060005260206000200154905080876000018481548110613cc8577f4e487b7100000000000000000000000000000000000000000000000000000000600052603260045260246000fd5b9060005260206000200181905550600183613ce391906156f0565b8760010160008381526020019081526020016000208190555086600001805480613d36577f4e487b7100000000000000000000000000000000000000000000000000000000600052603160045260246000fd5b60019003818190600052602060002001600090559055866001016000878152602001908152602001600020600090556001945050505050613d78565b60009150505b92915050565b6000613d8a8383614042565b613de3578260000182908060018154018082558091505060019003906000526020600020016000909190919091505582600001805490508360010160008481526020019081526020016000208190555060019050613de8565b600090505b92915050565b60008184600201600085815260200190815260200160002081905550613e20838560000161406590919063ffffffff16565b90509392505050565b6000613e388360000183613894565b905092915050565b600073ffffffffffffffffffffffffffffffffffffffff168273ffffffffffffffffffffffffffffffffffffffff161415613eb0576040517f08c379a0000000000000000000000000000000000000000000000000000000008152600401613ea7906153e2565b60405180910390fd5b613eb9816130a8565b15613ef9576040517f08c379a0000000000000000000000000000000000000000000000000000000008152600401613ef0906152a2565b60405180910390fd5b613f0560008383613826565b613f55816000808573ffffffffffffffffffffffffffffffffffffffff1673ffffffffffffffffffffffffffffffffffffffff16815260200190815260200160002061384590919063ffffffff16565b50613f6c8183600161385f9092919063ffffffff16565b5060006001613f7b6001613186565b613f859190615942565b905080600a600084815260200190815260200160002081905550818373ffffffffffffffffffffffffffffffffffffffff16600073ffffffffffffffffffffffffffffffffffffffff167fddf252ad1be2c89b69c2b068fc378daa952ba7f163c4a11628f55a4df523b3ef60405160405180910390a4505050565b600080823b905060008111915050919050565b6060614022848460008561407c565b90509392505050565b600061403a8360000183614042565b905092915050565b600080836001016000848152602001908152602001600020541415905092915050565b60006140748360000183613d7e565b905092915050565b6060824710156140c1576040517f08c379a00000000000000000000000000000000000000000000000000000000081526004016140b890615342565b60405180910390fd5b6140ca85614000565b614109576040517f08c379a000000000000000000000000000000000000000000000000000000000815260040161410090615522565b60405180910390fd5b6000808673ffffffffffffffffffffffffffffffffffffffff1685876040516141329190615143565b60006040518083038185875af1925050503d806000811461416f576040519150601f19603f3d011682016040523d82523d6000602084013e614174565b606091505b5091509150614184828286614190565b92505050949350505050565b606083156141a0578290506141f0565b6000835111156141b35782518084602001fd5b816040517f08c379a00000000000000000000000000000000000000000000000000000000081526004016141e79190615200565b60405180910390fd5b9392505050565b82805461420390615ab2565b90600052602060002090601f016020900481019282614225576000855561426c565b82601f1061423e57805160ff191683800117855561426c565b8280016001018555821561426c579182015b8281111561426b578251825591602001919060010190614250565b5b509050614279919061427d565b5090565b5b8082111561429657600081600090555060010161427e565b5090565b60006142ad6142a884615642565b615611565b9050828152602081018484840111156142c557600080fd5b6142d0848285615a46565b509392505050565b60006142eb6142e684615672565b615611565b90508281526020810184848401111561430357600080fd5b61430e848285615a46565b509392505050565b60008135905061432581615c8f565b92915050565b60008135905061433a81615ca6565b92915050565b60008135905061434f81615cbd565b92915050565b60008135905061436481615cd4565b92915050565b60008151905061437981615cd4565b92915050565b600082601f83011261439057600080fd5b81356143a084826020860161429a565b91505092915050565b600082601f8301126143ba57600080fd5b81356143ca8482602086016142d8565b91505092915050565b6000813590506143e281615ceb565b92915050565b6000602082840312156143fa57600080fd5b600061440884828501614316565b91505092915050565b6000806040838503121561442457600080fd5b600061443285828601614316565b925050602061444385828601614316565b9150509250929050565b60008060006060848603121561446257600080fd5b600061447086828701614316565b935050602061448186828701614316565b9250506040614492868287016143d3565b9150509250925092565b600080600080608085870312156144b257600080fd5b60006144c087828801614316565b94505060206144d187828801614316565b93505060406144e2878288016143d3565b925050606085013567ffffffffffffffff8111156144ff57600080fd5b61450b8782880161437f565b91505092959194509250565b6000806040838503121561452a57600080fd5b600061453885828601614316565b925050602061454985828601614340565b9150509250929050565b6000806040838503121561456657600080fd5b600061457485828601614316565b9250506020614585858286016143d3565b9150509250929050565b6000602082840312156145a157600080fd5b60006145af84828501614355565b91505092915050565b6000602082840312156145ca57600080fd5b60006145d88482850161436a565b91505092915050565b6000602082840312156145f357600080fd5b6000614601848285016143d3565b91505092915050565b6000806040838503121561461d57600080fd5b600061462b858286016143d3565b925050602061463c8582860161432b565b9150509250929050565b60008060006060848603121561465b57600080fd5b6000614669868287016143d3565b935050602084013567ffffffffffffffff81111561468657600080fd5b614692868287016143a9565b92505060406146a38682870161432b565b9150509250925092565b600080604083850312156146c057600080fd5b60006146ce858286016143d3565b92505060206146df858286016143d3565b9150509250929050565b6146f281615988565b82525050565b61470181615976565b82525050565b6147108161599a565b82525050565b6000614721826156a2565b61472b81856156b8565b935061473b818560208601615a55565b61474481615c49565b840191505092915050565b600061475a826156a2565b61476481856156c9565b9350614774818560208601615a55565b80840191505092915050565b61478981615a22565b82525050565b61479881615a34565b82525050565b60006147a9826156ad565b6147b381856156d4565b93506147c3818560208601615a55565b6147cc81615c49565b840191505092915050565b60006147e2826156ad565b6147ec81856156e5565b93506147fc818560208601615a55565b80840191505092915050565b60006148156022836156d4565b91507f456e756d657261626c655365743a20696e646578206f7574206f6620626f756e60008301527f64730000000000000000000000000000000000000000000000000000000000006020830152604082019050919050565b600061487b6023836156d4565b91507f506c656173652073656e6420746865206d696e696d756d206c6f616e20616d6f60008301527f756e7400000000000000000000000000000000000000000000000000000000006020830152604082019050919050565b60006148e1602a836156d4565b91507f506c656173652073656e642061746c65617374207468652073616c6520616d6f60008301527f756e7420746f20627579000000000000000000000000000000000000000000006020830152604082019050919050565b60006149476032836156d4565b91507f4552433732313a207472616e7366657220746f206e6f6e20455243373231526560008301527f63656976657220696d706c656d656e74657200000000000000000000000000006020830152604082019050919050565b60006149ad601c836156d4565b91507f4552433732313a20746f6b656e20616c7265616479206d696e746564000000006000830152602082019050919050565b60006149ed6027836156d4565b91507f4c6f616e20706572696f6420766f696c617465642c2063616e6e6f742072657460008301527f75726e204e4654000000000000000000000000000000000000000000000000006020830152604082019050919050565b6000614a536024836156d4565b91507f4552433732313a207472616e7366657220746f20746865207a65726f2061646460008301527f72657373000000000000000000000000000000000000000000000000000000006020830152604082019050919050565b6000614ab96019836156d4565b91507f4552433732313a20617070726f766520746f2063616c6c6572000000000000006000830152602082019050919050565b6000614af9601d836156d4565b91507f4e4654206973206e6f7420617661696c61626c6520666f72206c6f616e0000006000830152602082019050919050565b6000614b396026836156d4565b91507f416464726573733a20696e73756666696369656e742062616c616e636520666f60008301527f722063616c6c00000000000000000000000000000000000000000000000000006020830152604082019050919050565b6000614b9f602c836156d4565b91507f4552433732313a206f70657261746f7220717565727920666f72206e6f6e657860008301527f697374656e7420746f6b656e00000000000000000000000000000000000000006020830152604082019050919050565b6000614c056038836156d4565b91507f4552433732313a20617070726f76652063616c6c6572206973206e6f74206f7760008301527f6e6572206e6f7220617070726f76656420666f7220616c6c00000000000000006020830152604082019050919050565b6000614c6b602a836156d4565b91507f4552433732313a2062616c616e636520717565727920666f7220746865207a6560008301527f726f2061646472657373000000000000000000000000000000000000000000006020830152604082019050919050565b6000614cd1602a836156d4565b91507f4c6f616e20706572696f6420766f696c617465642c20736f204e46542069732060008301527f6c697175696461746564000000000000000000000000000000000000000000006020830152604082019050919050565b6000614d376020836156d4565b91507f4552433732313a206d696e7420746f20746865207a65726f20616464726573736000830152602082019050919050565b6000614d77602c836156d4565b91507f4552433732313a20617070726f76656420717565727920666f72206e6f6e657860008301527f697374656e7420746f6b656e00000000000000000000000000000000000000006020830152604082019050919050565b6000614ddd6029836156d4565b91507f4552433732313a207472616e73666572206f6620746f6b656e2074686174206960008301527f73206e6f74206f776e00000000000000000000000000000000000000000000006020830152604082019050919050565b6000614e43601d836156d4565b91507f4e4654206973206e6f7420617661696c61626c6520666f722073616c650000006000830152602082019050919050565b6000614e83602f836156d4565b91507f4552433732314d657461646174613a2055524920717565727920666f72206e6f60008301527f6e6578697374656e7420746f6b656e00000000000000000000000000000000006020830152604082019050919050565b6000614ee9602e836156d4565b91507f4e4654207374696c6c2077697468696e204c6f616e20706572696f642c20636160008301527f6e6e6f74206c69717569646174650000000000000000000000000000000000006020830152604082019050919050565b6000614f4f6021836156d4565b91507f4552433732313a20617070726f76616c20746f2063757272656e74206f776e6560008301527f72000000000000000000000000000000000000000000000000000000000000006020830152604082019050919050565b6000614fb56022836156d4565b91507f43616c6c6572206973206e6f7420746865206f776e6572206f6620746865204e60008301527f46540000000000000000000000000000000000000000000000000000000000006020830152604082019050919050565b600061501b6031836156d4565b91507f4552433732313a207472616e736665722063616c6c6572206973206e6f74206f60008301527f776e6572206e6f7220617070726f7665640000000000000000000000000000006020830152604082019050919050565b60006150816012836156d4565b91507f4e4654206973206e6f74206f6e204c6f616e00000000000000000000000000006000830152602082019050919050565b60006150c1601d836156d4565b91507f416464726573733a2063616c6c20746f206e6f6e2d636f6e74726163740000006000830152602082019050919050565b60006151016011836156d4565b91507f6e6f6e6578697374616e7420746f6b656e0000000000000000000000000000006000830152602082019050919050565b61513d81615a18565b82525050565b600061514f828461474f565b915081905092915050565b600061516682856147d7565b915061517282846147d7565b91508190509392505050565b600060208201905061519360008301846146f8565b92915050565b60006080820190506151ae60008301876146f8565b6151bb60208301866146f8565b6151c86040830185615134565b81810360608301526151da8184614716565b905095945050505050565b60006020820190506151fa6000830184614707565b92915050565b6000602082019050818103600083015261521a818461479e565b905092915050565b6000602082019050818103600083015261523b81614808565b9050919050565b6000602082019050818103600083015261525b8161486e565b9050919050565b6000602082019050818103600083015261527b816148d4565b9050919050565b6000602082019050818103600083015261529b8161493a565b9050919050565b600060208201905081810360008301526152bb816149a0565b9050919050565b600060208201905081810360008301526152db816149e0565b9050919050565b600060208201905081810360008301526152fb81614a46565b9050919050565b6000602082019050818103600083015261531b81614aac565b9050919050565b6000602082019050818103600083015261533b81614aec565b9050919050565b6000602082019050818103600083015261535b81614b2c565b9050919050565b6000602082019050818103600083015261537b81614b92565b9050919050565b6000602082019050818103600083015261539b81614bf8565b9050919050565b600060208201905081810360008301526153bb81614c5e565b9050919050565b600060208201905081810360008301526153db81614cc4565b9050919050565b600060208201905081810360008301526153fb81614d2a565b9050919050565b6000602082019050818103600083015261541b81614d6a565b9050919050565b6000602082019050818103600083015261543b81614dd0565b9050919050565b6000602082019050818103600083015261545b81614e36565b9050919050565b6000602082019050818103600083015261547b81614e76565b9050919050565b6000602082019050818103600083015261549b81614edc565b9050919050565b600060208201905081810360008301526154bb81614f42565b9050919050565b600060208201905081810360008301526154db81614fa8565b9050919050565b600060208201905081810360008301526154fb8161500e565b9050919050565b6000602082019050818103600083015261551b81615074565b9050919050565b6000602082019050818103600083015261553b816150b4565b9050919050565b6000602082019050818103600083015261555b816150f4565b9050919050565b60006020820190506155776000830184615134565b92915050565b600061012082019050615593600083018c615134565b6155a0602083018b615134565b81810360408301526155b2818a61479e565b90506155c16060830189614780565b6155ce608083018861478f565b6155db60a08301876146e9565b6155e860c08301866146f8565b6155f560e0830185615134565b615603610100830184615134565b9a9950505050505050505050565b6000604051905081810181811067ffffffffffffffff8211171561563857615637615c1a565b5b8060405250919050565b600067ffffffffffffffff82111561565d5761565c615c1a565b5b601f19601f8301169050602081019050919050565b600067ffffffffffffffff82111561568d5761568c615c1a565b5b601f19601f8301169050602081019050919050565b600081519050919050565b600081519050919050565b600082825260208201905092915050565b600081905092915050565b600082825260208201905092915050565b600081905092915050565b60006156fb82615a18565b915061570683615a18565b9250827fffffffffffffffffffffffffffffffffffffffffffffffffffffffffffffffff0382111561573b5761573a615b5e565b5b828201905092915050565b600061575182615a18565b915061575c83615a18565b92508261576c5761576b615b8d565b5b828204905092915050565b6000808291508390505b60018511156157c15780860481111561579d5761579c615b5e565b5b60018516156157ac5780820291505b80810290506157ba85615c5a565b9450615781565b94509492505050565b60006157d582615a18565b91506157e083615a18565b925061580d7fffffffffffffffffffffffffffffffffffffffffffffffffffffffffffffffff8484615815565b905092915050565b60008261582557600190506158e1565b8161583357600090506158e1565b8160018114615849576002811461585357615882565b60019150506158e1565b60ff84111561586557615864615b5e565b5b8360020a91508482111561587c5761587b615b5e565b5b506158e1565b5060208310610133831016604e8410600b84101617156158b75782820a9050838111156158b2576158b1615b5e565b5b6158e1565b6158c48484846001615777565b925090508184048111156158db576158da615b5e565b5b81810290505b9392505050565b60006158f382615a18565b91506158fe83615a18565b9250817fffffffffffffffffffffffffffffffffffffffffffffffffffffffffffffffff048311821515161561593757615936615b5e565b5b828202905092915050565b600061594d82615a18565b915061595883615a18565b92508282101561596b5761596a615b5e565b5b828203905092915050565b6000615981826159f8565b9050919050565b6000615993826159f8565b9050919050565b60008115159050919050565b60007fffffffff0000000000000000000000000000000000000000000000000000000082169050919050565b60008190506159e082615c67565b919050565b60008190506159f382615c7b565b919050565b600073ffffffffffffffffffffffffffffffffffffffff82169050919050565b6000819050919050565b6000615a2d826159d2565b9050919050565b6000615a3f826159e5565b9050919050565b82818337600083830152505050565b60005b83811015615a73578082015181840152602081019050615a58565b83811115615a82576000848401525b50505050565b6000615a9382615a18565b91506000821415615aa757615aa6615b5e565b5b600182039050919050565b60006002820490506001821680615aca57607f821691505b60208210811415615ade57615add615beb565b5b50919050565b6000615aef82615a18565b91507fffffffffffffffffffffffffffffffffffffffffffffffffffffffffffffffff821415615b2257615b21615b5e565b5b600182019050919050565b6000615b3882615a18565b9150615b4383615a18565b925082615b5357615b52615b8d565b5b828206905092915050565b7f4e487b7100000000000000000000000000000000000000000000000000000000600052601160045260246000fd5b7f4e487b7100000000000000000000000000000000000000000000000000000000600052601260045260246000fd5b7f4e487b7100000000000000000000000000000000000000000000000000000000600052602160045260246000fd5b7f4e487b7100000000000000000000000000000000000000000000000000000000600052602260045260246000fd5b7f4e487b7100000000000000000000000000000000000000000000000000000000600052604160045260246000fd5b6000601f19601f8301169050919050565b60008160011c9050919050565b60048110615c7857615c77615bbc565b5b50565b60028110615c8c57615c8b615bbc565b5b50565b615c9881615976565b8114615ca357600080fd5b50565b615caf81615988565b8114615cba57600080fd5b50565b615cc68161599a565b8114615cd157600080fd5b50565b615cdd816159a6565b8114615ce857600080fd5b50565b615cf481615a18565b8114615cff57600080fd5b5056fe4552433732313a207472616e7366657220746f206e6f6e20455243373231526563656976657220696d706c656d656e7465724552433732313a206f776e657220717565727920666f72206e6f6e6578697374656e7420746f6b656ea2646970667358221220d19c5f19282babfe87aea38356a445b9531dc8872627eda625eb4d0d62e1208464736f6c63430008000033",
  "immutableReferences": {},
  "source": "//SPDX-Licence-Identifier: MIT\r\n\r\nimport \"./standards/ERC721.sol\";\r\n\r\npragma solidity ^0.8.0;\r\n\r\ncontract DBNFT is ERC721 {\r\n    using SafeMath for uint256;\r\n    //Each DB-NFT will have the following data\r\n    struct DB {\r\n        uint256 id;\r\n        uint256 value;\r\n        string description;\r\n        LoanStatus loanStatus;\r\n        SaleStatus saleStatus;\r\n        address payable owner;\r\n        address borrower;\r\n        uint256 onLoanFrom;\r\n        uint256 loanPeriod;\r\n    }\r\n\r\n    DB[] public getNFTInfobyID;\r\n\r\n    uint256 public NFTForLoanCount;\r\n    uint256 public NFTForSaleCount;\r\n\r\n    constructor(string memory _name, string memory _symbol)\r\n        ERC721(_name, _symbol)\r\n    {}\r\n\r\n    enum LoanStatus {FOR_LOAN, ON_LOAN, NOT_FOR_LOAN, LIQUIDATED}\r\n    enum SaleStatus {FOR_SALE, NOT_FOR_SALE}\r\n\r\n    //Function to CreateNFT\r\n    function mintNFT(\r\n        uint256 _value,\r\n        string memory _description,\r\n        address payable _owner\r\n    ) public {\r\n        DB memory _db =\r\n            DB({\r\n                id: 0,\r\n                value: _value,\r\n                description: _description,\r\n                owner: _owner,\r\n                loanStatus: LoanStatus.NOT_FOR_LOAN,\r\n                onLoanFrom: 0,\r\n                borrower: address(0),\r\n                saleStatus: SaleStatus.NOT_FOR_SALE,\r\n                loanPeriod: 0\r\n            });\r\n        getNFTInfobyID.push(_db);\r\n        uint256 _tokenId = getNFTInfobyID.length - 1;\r\n        _safeMint(msg.sender, _tokenId);\r\n        uint256 _index = getTokenIndexByID(_tokenId);\r\n        getNFTInfobyID[_index].id = _index;\r\n    }\r\n\r\n    //Function to List NFT for Loan\r\n    function listNFTForLoan(uint256 _tokenId) public {\r\n        require(msg.sender != address(0));\r\n        address _owner = ownerOf(_tokenId);\r\n        require(msg.sender == _owner);\r\n        uint256 _index = getTokenIndexByID(_tokenId);\r\n        _transfer(_owner, address(this), _tokenId);\r\n        getNFTInfobyID[_index].loanStatus = LoanStatus.FOR_LOAN;\r\n        NFTForLoanCount++;\r\n    }\r\n\r\n    //Function to List NFT for Loan\r\n    function listNFTForSale(uint256 _tokenId, uint256 _value) public {\r\n        require(msg.sender != address(0));\r\n        uint256 _index = getTokenIndexByID(_tokenId);\r\n        require(msg.sender == getNFTInfobyID[_index].owner);\r\n        address _owner = ownerOf(_tokenId);\r\n        getNFTInfobyID[_index].saleStatus = SaleStatus.FOR_SALE;\r\n        getNFTInfobyID[_index].value = _value;\r\n        NFTForSaleCount++;\r\n        _transfer(_owner, address(this), _tokenId);\r\n    }\r\n\r\n    // Computes `k * (1+1/q) ^ N`, with precision `p`. The higher\r\n    // the precision, the higher the gas cost. It should be\r\n    // something around the log of `n`. When `p == n`, the\r\n    // precision is absolute (sans possible integer overflows). <edit: NOT true, see comments>\r\n    // Much smaller values are sufficient to get a great approximation.\r\n    function fracExp(\r\n        uint256 k,\r\n        uint256 q,\r\n        uint256 n,\r\n        uint256 p\r\n    ) internal pure returns (uint256) {\r\n        uint256 s = 0;\r\n        uint256 N = 1;\r\n        uint256 B = 1;\r\n        for (uint256 i = 0; i < p; ++i) {\r\n            s += (k * N) / B / (q**i);\r\n            N = N * (n - i);\r\n            B = B * (i + 1);\r\n        }\r\n        return s;\r\n    }\r\n\r\n    //Computes the Loan Amount which is 2*tokenValue + 5% compound interest for every second\r\n    function calcLoan(uint256 _tokenId, uint256 _periodInSeconds)\r\n        public\r\n        returns (uint256)\r\n    {\r\n        uint256 _index = getTokenIndexByID(_tokenId);\r\n        uint256 tokenValue = getNFTInfobyID[_index].value;\r\n        //interest = 5; //5% interest rate per second\r\n        uint256 a = (100 * _periodInSeconds) / 5;\r\n        uint256 compound = fracExp(tokenValue, a, _periodInSeconds, 8);\r\n        //deposit - refundable - 2*value of token\r\n        uint256 deposit = 2 * tokenValue;\r\n        return (deposit + compound);\r\n    }\r\n\r\n    function borrowNFT(uint256 _tokenId, uint256 _periodInSeconds)\r\n        public\r\n        payable\r\n    {\r\n        require(msg.sender != address(0));\r\n        require(_exists(_tokenId), \"nonexistant token\");\r\n        uint256 _index = getTokenIndexByID(_tokenId);\r\n        require(\r\n            getNFTInfobyID[_index].loanStatus == LoanStatus.FOR_LOAN,\r\n            \"NFT is not available for loan\"\r\n        );\r\n        uint256 loanAmount = calcLoan(_tokenId, _periodInSeconds);\r\n        require(msg.value >= loanAmount, \"Please send the minimum loan amount\");\r\n        getNFTInfobyID[_index].owner.transfer(msg.value);\r\n        getNFTInfobyID[_index].borrower = msg.sender;\r\n\r\n        getNFTInfobyID[_index].loanStatus = LoanStatus.ON_LOAN;\r\n        getNFTInfobyID[_index].onLoanFrom = block.timestamp;\r\n        getNFTInfobyID[_index].loanPeriod = _periodInSeconds;\r\n        NFTForLoanCount--;\r\n        _transfer(address(this), msg.sender, _tokenId);\r\n    }\r\n\r\n    function buyNFT(uint256 _tokenId, address payable _newOwner)\r\n        public\r\n        payable\r\n    {\r\n        require(msg.sender != address(0));\r\n        require(_exists(_tokenId), \"nonexistant token\");\r\n        uint256 _index = getTokenIndexByID(_tokenId);\r\n        DB memory _db = getNFTInfobyID[_index];\r\n        //Check the status of NFT and transferred value\r\n        require(\r\n            _db.saleStatus == SaleStatus.FOR_SALE,\r\n            \"NFT is not available for sale\"\r\n        );\r\n        require(\r\n            msg.value >= _db.value,\r\n            \"Please send atleast the sale amount to buy\"\r\n        );\r\n        uint256 transferToOwner = msg.value - (2 * _db.value);\r\n        //owner gets only the interest on successful loan\r\n        getNFTInfobyID[_index].owner.transfer(transferToOwner);\r\n        getNFTInfobyID[_index].owner = _newOwner;\r\n        getNFTInfobyID[_index].saleStatus = SaleStatus.NOT_FOR_SALE;\r\n        NFTForSaleCount--;\r\n        _transfer(address(this), msg.sender, _tokenId);\r\n    }\r\n\r\n    //Function for Owner to liquidate the NFT if it passes the loan period\r\n    function liquidateNFT(uint256 _tokenId, address payable _receiveAddress)\r\n        public\r\n    {\r\n        require(msg.sender != address(0));\r\n        require(_exists(_tokenId), \"nonexistant token\");\r\n        uint256 _index = getTokenIndexByID(_tokenId);\r\n        DB memory _db = getNFTInfobyID[_index];\r\n        require(msg.sender == _db.owner, \"Caller is not the owner of the NFT\");\r\n        require(_db.loanStatus == LoanStatus.ON_LOAN, \"NFT is not on Loan\");\r\n        require(\r\n            (block.timestamp - _db.onLoanFrom) > _db.loanPeriod,\r\n            \"NFT still within Loan period, cannot liquidate\"\r\n        );\r\n        //Owner will get the borrower's deposit on liquidating\r\n        uint256 liquidateAmount = 2 * _db.value;\r\n        _receiveAddress.transfer(liquidateAmount);\r\n        getNFTInfobyID[_index].loanStatus = LoanStatus.LIQUIDATED;\r\n    }\r\n\r\n    //Function for Borrower to return the NFT before the Loan Period\r\n    function returnNFT(uint256 _tokenId, address payable _receiveAddress)\r\n        public\r\n        payable\r\n    {\r\n        require(msg.sender != address(0));\r\n        require(_exists(_tokenId), \"nonexistant token\");\r\n        uint256 _index = getTokenIndexByID(_tokenId);\r\n        DB memory _db = getNFTInfobyID[_index];\r\n        //Loan Period is still valid - not liquidated by the owner\r\n        require(\r\n            _db.loanStatus == LoanStatus.ON_LOAN,\r\n            \"Loan period voilated, so NFT is liquidated\"\r\n        );\r\n        require(\r\n            (block.timestamp - _db.onLoanFrom) <= _db.loanPeriod,\r\n            \"Loan period voilated, cannot return NFT\"\r\n        );\r\n        getNFTInfobyID[_index].loanStatus = LoanStatus.NOT_FOR_LOAN;\r\n        getNFTInfobyID[_index].onLoanFrom = 0;\r\n        getNFTInfobyID[_index].loanPeriod = 0;\r\n        transferFrom(msg.sender, getNFTInfobyID[_index].owner, _tokenId);\r\n        uint256 deposit = 2 * getNFTInfobyID[_index].value;\r\n        _receiveAddress.transfer(deposit);\r\n    }\r\n}\r\n",
  "sourcePath": "C:/Users/Pradeep/Documents/GitHub/ERC-721 Lending Contract/ERC-721-Lending-Contract/contracts/LendingContract.sol",
  "compiler": {
    "name": "solc",
    "version": "0.8.0+commit.c7dfd78e.Emscripten.clang"
  },
  "schemaVersion": "3.3.4",
  "updatedAt": "2021-04-12T14:39:02.082Z",
  "devdoc": {
    "kind": "dev",
    "methods": {
      "approve(address,uint256)": {
        "details": "See {IERC721-approve}."
      },
      "balanceOf(address)": {
        "details": "See {IERC721-balanceOf}."
      },
      "baseURI()": {
        "details": "Returns the base URI set via {_setBaseURI}. This will be automatically added as a prefix in {tokenURI} to each token's URI, or to the token ID if no specific URI is set for that token ID."
      },
      "getApproved(uint256)": {
        "details": "See {IERC721-getApproved}."
      },
      "isApprovedForAll(address,address)": {
        "details": "See {IERC721-isApprovedForAll}."
      },
      "name()": {
        "details": "See {IERC721Metadata-name}."
      },
      "ownerOf(uint256)": {
        "details": "See {IERC721-ownerOf}."
      },
      "safeTransferFrom(address,address,uint256)": {
        "details": "See {IERC721-safeTransferFrom}."
      },
      "safeTransferFrom(address,address,uint256,bytes)": {
        "details": "See {IERC721-safeTransferFrom}."
      },
      "setApprovalForAll(address,bool)": {
        "details": "See {IERC721-setApprovalForAll}."
      },
      "supportsInterface(bytes4)": {
        "details": "See {IERC165-supportsInterface}."
      },
      "symbol()": {
        "details": "See {IERC721Metadata-symbol}."
      },
      "tokenByIndex(uint256)": {
        "details": "See {IERC721Enumerable-tokenByIndex}."
      },
      "tokenOfOwnerByIndex(address,uint256)": {
        "details": "See {IERC721Enumerable-tokenOfOwnerByIndex}."
      },
      "tokenURI(uint256)": {
        "details": "See {IERC721Metadata-tokenURI}."
      },
      "totalSupply()": {
        "details": "See {IERC721Enumerable-totalSupply}."
      },
      "transferFrom(address,address,uint256)": {
        "details": "See {IERC721-transferFrom}."
      }
    },
    "version": 1
  },
  "userdoc": {
    "kind": "user",
    "methods": {},
    "version": 1
  }
}